{
  "contractName": "Auction",
  "abi": [
    {
      "constant": true,
      "inputs": [
        {
          "name": "",
          "type": "uint256"
        }
      ],
      "name": "bidders",
      "outputs": [
        {
          "name": "itemId",
          "type": "uint256"
        },
        {
          "name": "payAddress",
          "type": "address"
        },
        {
          "name": "bidAmount",
          "type": "uint256"
        }
      ],
      "payable": false,
      "stateMutability": "view",
      "type": "function"
    },
    {
      "constant": false,
      "inputs": [
        {
          "name": "itemid",
          "type": "uint256"
        },
        {
          "name": "amount",
          "type": "uint256"
        }
      ],
      "name": "getBidder",
      "outputs": [],
      "payable": false,
      "stateMutability": "nonpayable",
      "type": "function"
    },
    {
      "constant": true,
      "inputs": [
        {
          "name": "index",
          "type": "uint256"
        }
      ],
      "name": "getBiddersData",
      "outputs": [
        {
          "name": "",
          "type": "uint256"
        },
        {
          "name": "",
          "type": "address"
        },
        {
          "name": "",
          "type": "uint256"
        }
      ],
      "payable": false,
      "stateMutability": "view",
      "type": "function"
    },
    {
      "constant": false,
      "inputs": [],
      "name": "getFinalPayment",
      "outputs": [],
      "payable": true,
      "stateMutability": "payable",
      "type": "function"
    },
    {
      "constant": true,
      "inputs": [],
      "name": "getBidItemsLength",
      "outputs": [
        {
          "name": "",
          "type": "uint256"
        }
      ],
      "payable": false,
      "stateMutability": "view",
      "type": "function"
    },
    {
      "constant": false,
      "inputs": [
        {
          "name": "operator",
          "type": "address"
        },
        {
          "name": "from",
          "type": "address"
        },
        {
          "name": "tokenId",
          "type": "uint256"
        },
        {
          "name": "data",
          "type": "bytes"
        }
      ],
      "name": "onERC721Received",
      "outputs": [
        {
          "name": "",
          "type": "bytes4"
        }
      ],
      "payable": false,
      "stateMutability": "nonpayable",
      "type": "function"
    }
  ],
  "bytecode": "0x608060405234801561001057600080fd5b5061059b806100206000396000f3fe6080604052600436106100555760003560e01c8063150b7a021461005a5780631eb8f1f5146101be578063aee98bd714610247578063b765f97c14610251578063cff29dfd1461027c578063d0dd990814610305575b600080fd5b34801561006657600080fd5b5061016a6004803603608081101561007d57600080fd5b81019080803573ffffffffffffffffffffffffffffffffffffffff169060200190929190803573ffffffffffffffffffffffffffffffffffffffff16906020019092919080359060200190929190803590602001906401000000008111156100e457600080fd5b8201836020820111156100f657600080fd5b8035906020019184600183028401116401000000008311171561011857600080fd5b91908080601f016020809104026020016040519081016040528093929190818152602001838380828437600081840152601f19601f82011690508083019250505050505050919291929050505061034a565b60405180827bffffffffffffffffffffffffffffffffffffffffffffffffffffffff19167bffffffffffffffffffffffffffffffffffffffffffffffffffffffff1916815260200191505060405180910390f35b3480156101ca57600080fd5b506101f7600480360360208110156101e157600080fd5b8101908080359060200190929190505050610389565b604051808481526020018373ffffffffffffffffffffffffffffffffffffffff1673ffffffffffffffffffffffffffffffffffffffff168152602001828152602001935050505060405180910390f35b61024f610418565b005b34801561025d57600080fd5b5061026661041a565b6040518082815260200191505060405180910390f35b34801561028857600080fd5b506102b56004803603602081101561029f57600080fd5b8101908080359060200190929190505050610427565b604051808481526020018373ffffffffffffffffffffffffffffffffffffffff1673ffffffffffffffffffffffffffffffffffffffff168152602001828152602001935050505060405180910390f35b34801561031157600080fd5b506103486004803603604081101561032857600080fd5b81019080803590602001909291908035906020019092919050505061047e565b005b60008083908060018154018082558091505090600182039060005260206000200160009091929091909150555063150b7a0260e01b9050949350505050565b60008060006001848154811061039b57fe5b906000526020600020906003020160000154600185815481106103ba57fe5b906000526020600020906003020160010160009054906101000a900473ffffffffffffffffffffffffffffffffffffffff16600186815481106103f957fe5b9060005260206000209060030201600201549250925092509193909250565b565b6000600180549050905090565b6001818154811061043457fe5b90600052602060002090600302016000915090508060000154908060010160009054906101000a900473ffffffffffffffffffffffffffffffffffffffff16908060020154905083565b6000600360008481526020019081526020016000209050806002015482116104a557600080fd5b818160020181905550600160405180606001604052808581526020013373ffffffffffffffffffffffffffffffffffffffff16815260200184815250908060018154018082558091505090600182039060005260206000209060030201600090919290919091506000820151816000015560208201518160010160006101000a81548173ffffffffffffffffffffffffffffffffffffffff021916908373ffffffffffffffffffffffffffffffffffffffff1602179055506040820151816002015550505050505056fea165627a7a723058209aef0d2a2af7ca1b474846eaec8f68d1e8917355662d11fd89cd42af1f3edcde0029",
  "source": "pragma solidity >=0.4.0 <0.6.0;\n\n\nimport \"openzeppelin-solidity/contracts/token/ERC721/IERC721Receiver.sol\";\n\ncontract Auction is IERC721Receiver {\nuint256[] tokens;\n\n struct BiddersData {\n    uint256 itemId;  \n    address payAddress;\n    uint bidAmount;\n }\n\n BiddersData[] public bidders;\n uint maxBid;\n mapping( uint256 => BiddersData)highestAmount;\n\nfunction getBidder(uint256 itemid,uint amount) public {  \n    //To be added later when compiled\n      BiddersData storage currentHigh = highestAmount[itemid];\n      require(amount > currentHigh.bidAmount);\n      currentHigh.bidAmount = amount;\n        \n      \n      bidders.push(BiddersData(itemid,msg.sender, amount));  \n}\n\n\nfunction getBiddersData(uint index) public view returns (uint256,address,uint) {\n    return (bidders[index].itemId,bidders[index].payAddress,bidders[index].bidAmount);\n        \n}\n\n\nfunction getFinalPayment() public payable {\n    \n}\n\nfunction getBidItemsLength() public view returns (uint) {\n    return bidders.length;\n}\n\n\nfunction onERC721Received(address operator, address from, uint256 tokenId, bytes memory data) public returns (bytes4) {\n    tokens.push(tokenId);\n    return this.onERC721Received.selector;\n}\n\n}",
  "sourcePath": "F:/projects/Auction-angular/contracts/Auction.sol",
  "compiler": {
    "name": "solc",
    "version": "0.5.8+commit.23d335f2.Emscripten.clang"
  },
  "schemaVersion": "3.0.11",
  "updatedAt": "2019-07-26T09:35:37.566Z",
  "devdoc": {
    "methods": {}
  },
  "userdoc": {
    "methods": {}
  }
}