{
  "contractName": "Auction",
  "abi": [
    {
      "constant": true,
      "inputs": [
        {
          "name": "",
          "type": "uint256"
        }
      ],
      "name": "itemData",
      "outputs": [
        {
          "name": "itemId",
          "type": "uint256"
        },
        {
          "name": "itemHash",
          "type": "string"
        },
        {
          "name": "payAddress",
          "type": "address"
        },
        {
          "name": "amountToBePaid",
          "type": "uint256"
        }
      ],
      "payable": false,
      "stateMutability": "view",
      "type": "function"
    },
    {
      "constant": true,
      "inputs": [
        {
          "name": "",
          "type": "uint256"
        }
      ],
      "name": "itemBody",
      "outputs": [
        {
          "name": "itemId",
          "type": "uint256"
        },
        {
          "name": "itemHash",
          "type": "string"
        },
        {
          "name": "price",
          "type": "uint256"
        },
        {
          "name": "description",
          "type": "string"
        }
      ],
      "payable": false,
      "stateMutability": "view",
      "type": "function"
    },
    {
      "constant": false,
      "inputs": [
        {
          "name": "itemhash",
          "type": "string"
        },
        {
          "name": "itemprice",
          "type": "uint256"
        },
        {
          "name": "itemdescription",
          "type": "string"
        }
      ],
      "name": "addNewItemTolist",
      "outputs": [],
      "payable": false,
      "stateMutability": "nonpayable",
      "type": "function"
    },
    {
      "constant": true,
      "inputs": [
        {
          "name": "index",
          "type": "uint256"
        }
      ],
      "name": "getItems",
      "outputs": [
        {
          "name": "",
          "type": "uint256"
        },
        {
          "name": "",
          "type": "string"
        },
        {
          "name": "",
          "type": "uint256"
        },
        {
          "name": "",
          "type": "string"
        }
      ],
      "payable": false,
      "stateMutability": "view",
      "type": "function"
    },
    {
      "constant": false,
      "inputs": [
        {
          "name": "itemid",
          "type": "uint256"
        },
        {
          "name": "amt",
          "type": "uint256"
        },
        {
          "name": "itemhash",
          "type": "string"
        }
      ],
      "name": "getBidder",
      "outputs": [],
      "payable": false,
      "stateMutability": "nonpayable",
      "type": "function"
    },
    {
      "constant": true,
      "inputs": [
        {
          "name": "index",
          "type": "uint256"
        }
      ],
      "name": "getBiddersData",
      "outputs": [
        {
          "name": "",
          "type": "uint256"
        },
        {
          "name": "",
          "type": "string"
        },
        {
          "name": "",
          "type": "address"
        },
        {
          "name": "",
          "type": "uint256"
        }
      ],
      "payable": false,
      "stateMutability": "view",
      "type": "function"
    },
    {
      "constant": false,
      "inputs": [],
      "name": "getFinalPayment",
      "outputs": [],
      "payable": true,
      "stateMutability": "payable",
      "type": "function"
    },
    {
      "constant": true,
      "inputs": [],
      "name": "getBidItemsLength",
      "outputs": [
        {
          "name": "",
          "type": "uint256"
        }
      ],
      "payable": false,
      "stateMutability": "view",
      "type": "function"
    },
    {
      "constant": true,
      "inputs": [],
      "name": "getTotalItemslength",
      "outputs": [
        {
          "name": "",
          "type": "uint256"
        }
      ],
      "payable": false,
      "stateMutability": "view",
      "type": "function"
    }
  ],
  "bytecode": "0x608060405234801561001057600080fd5b50610ed2806100206000396000f3fe6080604052600436106100865760003560e01c80636bb40215116100595780636bb402151461015f578063796c5e941461019f578063a25c2cef146101df578063aee98bd714610208578063b765f97c1461021257610086565b80631eb8f1f51461008b57806331fe20af146100cb578063431891c4146100f6578063552348f21461011f575b600080fd5b34801561009757600080fd5b506100b260048036036100ad9190810190610af9565b61023d565b6040516100c29493929190610c34565b60405180910390f35b3480156100d757600080fd5b506100e061038a565b6040516100ed9190610c19565b60405180910390f35b34801561010257600080fd5b5061011d60048036036101189190810190610a7a565b610396565b005b34801561012b57600080fd5b5061014660048036036101419190810190610af9565b61044e565b6040516101569493929190610cd3565b60405180910390f35b34801561016b57600080fd5b5061018660048036036101819190810190610af9565b610543565b6040516101969493929190610d1f565b60405180910390f35b3480156101ab57600080fd5b506101c660048036036101c19190810190610af9565b6106b0565b6040516101d69493929190610c80565b60405180910390f35b3480156101eb57600080fd5b5061020660048036036102019190810190610b22565b610879565b005b61021061095d565b005b34801561021e57600080fd5b5061022761095f565b6040516102349190610c19565b60405180910390f35b600060606000806001858154811061025157fe5b9060005260206000209060040201600001546001868154811061027057fe5b90600052602060002090600402016001016001878154811061028e57fe5b906000526020600020906004020160020160009054906101000a900473ffffffffffffffffffffffffffffffffffffffff16600188815481106102cd57fe5b906000526020600020906004020160030154828054600181600116156101000203166002900480601f0160208091040260200160405190810160405280929190818152602001828054600181600116156101000203166002900480156103745780601f1061034957610100808354040283529160200191610374565b820191906000526020600020905b81548152906001019060200180831161035757829003601f168201915b5050505050925093509350935093509193509193565b60008080549050905090565b600060405180608001604052806002548152602001858152602001848152602001838152509080600181540180825580915050906001820390600052602060002090600402016000909192909190915060008201518160000155602082015181600101908051906020019061040c92919061096c565b5060408201518160020155606082015181600301908051906020019061043392919061096c565b50505050600260008154809291906001019190505550505050565b6001818154811061045b57fe5b9060005260206000209060040201600091509050806000015490806001018054600181600116156101000203166002900480601f01602080910402602001604051908101604052809291908181526020018280546001816001161561010002031660029004801561050d5780601f106104e25761010080835404028352916020019161050d565b820191906000526020600020905b8154815290600101906020018083116104f057829003601f168201915b5050505050908060020160009054906101000a900473ffffffffffffffffffffffffffffffffffffffff16908060030154905084565b6000818154811061055057fe5b9060005260206000209060040201600091509050806000015490806001018054600181600116156101000203166002900480601f0160208091040260200160405190810160405280929190818152602001828054600181600116156101000203166002900480156106025780601f106105d757610100808354040283529160200191610602565b820191906000526020600020905b8154815290600101906020018083116105e557829003601f168201915b505050505090806002015490806003018054600181600116156101000203166002900480601f0160208091040260200160405190810160405280929190818152602001828054600181600116156101000203166002900480156106a65780601f1061067b576101008083540402835291602001916106a6565b820191906000526020600020905b81548152906001019060200180831161068957829003601f168201915b5050505050905084565b6000606060006060600085815481106106c557fe5b906000526020600020906004020160000154600086815481106106e457fe5b90600052602060002090600402016001016000878154811061070257fe5b9060005260206000209060040201600201546000888154811061072157fe5b9060005260206000209060040201600301828054600181600116156101000203166002900480601f0160208091040260200160405190810160405280929190818152602001828054600181600116156101000203166002900480156107c75780601f1061079c576101008083540402835291602001916107c7565b820191906000526020600020905b8154815290600101906020018083116107aa57829003601f168201915b50505050509250808054600181600116156101000203166002900480601f0160208091040260200160405190810160405280929190818152602001828054600181600116156101000203166002900480156108635780601f1061083857610100808354040283529160200191610863565b820191906000526020600020905b81548152906001019060200180831161084657829003601f168201915b5050505050905093509350935093509193509193565b600160405180608001604052808581526020018381526020013373ffffffffffffffffffffffffffffffffffffffff168152602001848152509080600181540180825580915050906001820390600052602060002090600402016000909192909190915060008201518160000155602082015181600101908051906020019061090392919061096c565b5060408201518160020160006101000a81548173ffffffffffffffffffffffffffffffffffffffff021916908373ffffffffffffffffffffffffffffffffffffffff16021790555060608201518160030155505050505050565b565b6000600180549050905090565b828054600181600116156101000203166002900490600052602060002090601f016020900481019282601f106109ad57805160ff19168380011785556109db565b828001600101855582156109db579182015b828111156109da5782518255916020019190600101906109bf565b5b5090506109e891906109ec565b5090565b610a0e91905b80821115610a0a5760008160009055506001016109f2565b5090565b90565b600082601f830112610a2257600080fd5b8135610a35610a3082610d9f565b610d72565b91508082526020830160208301858383011115610a5157600080fd5b610a5c838284610e2e565b50505092915050565b600081359050610a7481610e81565b92915050565b600080600060608486031215610a8f57600080fd5b600084013567ffffffffffffffff811115610aa957600080fd5b610ab586828701610a11565b9350506020610ac686828701610a65565b925050604084013567ffffffffffffffff811115610ae357600080fd5b610aef86828701610a11565b9150509250925092565b600060208284031215610b0b57600080fd5b6000610b1984828501610a65565b91505092915050565b600080600060608486031215610b3757600080fd5b6000610b4586828701610a65565b9350506020610b5686828701610a65565b925050604084013567ffffffffffffffff811115610b7357600080fd5b610b7f86828701610a11565b9150509250925092565b610b9281610df2565b82525050565b6000610ba382610dd6565b610bad8185610de1565b9350610bbd818560208601610e3d565b610bc681610e70565b840191505092915050565b6000610bdc82610dcb565b610be68185610de1565b9350610bf6818560208601610e3d565b610bff81610e70565b840191505092915050565b610c1381610e24565b82525050565b6000602082019050610c2e6000830184610c0a565b92915050565b6000608082019050610c496000830187610c0a565b8181036020830152610c5b8186610b98565b9050610c6a6040830185610b89565b610c776060830184610c0a565b95945050505050565b6000608082019050610c956000830187610c0a565b8181036020830152610ca78186610b98565b9050610cb66040830185610c0a565b8181036060830152610cc88184610b98565b905095945050505050565b6000608082019050610ce86000830187610c0a565b8181036020830152610cfa8186610bd1565b9050610d096040830185610b89565b610d166060830184610c0a565b95945050505050565b6000608082019050610d346000830187610c0a565b8181036020830152610d468186610bd1565b9050610d556040830185610c0a565b8181036060830152610d678184610bd1565b905095945050505050565b6000604051905081810181811067ffffffffffffffff82111715610d9557600080fd5b8060405250919050565b600067ffffffffffffffff821115610db657600080fd5b601f19601f8301169050602081019050919050565b600081519050919050565b600081519050919050565b600082825260208201905092915050565b6000610dfd82610e04565b9050919050565b600073ffffffffffffffffffffffffffffffffffffffff82169050919050565b6000819050919050565b82818337600083830152505050565b60005b83811015610e5b578082015181840152602081019050610e40565b83811115610e6a576000848401525b50505050565b6000601f19601f8301169050919050565b610e8a81610e24565b8114610e9557600080fd5b5056fea265627a7a72305820307c4887a0762260376f997ce7975e66b12cea79ac3ff1d362f2158acf56946c6c6578706572696d656e74616cf50037",
  "source": "pragma solidity >=0.4.0 <0.6.0;\npragma experimental ABIEncoderV2;\n\n\ncontract Auction {\n\nstruct bidItems{\n    uint itemId;\n    string itemHash;\n    address payAddress;\n    uint amountToBePaid;\n   \n}\n\nstruct newItems{\n    uint itemId;\n    string itemHash;\n    uint price;\n    string description;\n}\n\nnewItems [] public itemBody;\nbidItems [] public itemData;\nuint id;\n\n\nfunction addNewItemTolist(string memory itemhash, uint itemprice, string memory itemdescription) public{\n    itemBody.push(newItems(id,itemhash,itemprice,itemdescription));\n    id++;\n}\n\n\nfunction getItems(uint index) public view  returns(uint, string memory, uint, string memory){\n    return (itemBody[index].itemId,itemBody[index].itemHash,itemBody[index].price,itemBody[index].description);\n}\n\n\nfunction getBidder(uint itemid,uint amt, string memory itemhash) public{       \n    itemData.push(bidItems(itemid,itemhash,msg.sender, amt));  \n}\n\n\nfunction getBiddersData(uint index) public view returns (uint,string memory,address,uint){\n    return (itemData[index].itemId,itemData[index].itemHash,itemData[index].payAddress,itemData[index].amountToBePaid);\n        \n}\n\n\nfunction getFinalPayment() public payable{\n    \n}\n\nfunction getBidItemsLength() public view returns (uint){\n    return itemData.length;\n}\n\n\nfunction getTotalItemslength() public view returns (uint){\n    return itemBody.length;\n}\n\n\n\n}",
  "sourcePath": "F:/projects/Auction-angular/contracts/Auction.sol",
  "compiler": {
    "name": "solc",
    "version": "0.5.8+commit.23d335f2.Emscripten.clang"
  },
  "schemaVersion": "3.0.11",
  "updatedAt": "2019-07-22T20:17:22.250Z",
  "devdoc": {
    "methods": {}
  },
  "userdoc": {
    "methods": {}
  }
}